:020000040800F2
:10000000B80400209D010008F115000881140008C3
:10001000ED150008A902000889180008000000007A
:10002000000000000000000000000000F9150008BA
:10003000AD02000800000000F5150008FD150008DD
:10004000B7010008B7010008B7010008B7010008B0
:10005000B7010008B7010008B7010008B7010008A0
:10006000B7010008B7010008B7010008B701000890
:10007000B7010008B7010008B7010008B701000880
:10008000B7010008B7010008B7010008B701000870
:10009000B7010008B7010008B7010008B701000860
:1000A000B7010008B7010008B7010008B701000850
:1000B0001D160008B7010008B7010008B7010008C5
:1000C000B7010008B7010008B7010008B701000830
:1000D000B7010008B70100087D180008B701000843
:1000E000B7010008B7010008B7010008B701000810
:1000F000B7010008B7010008B7010008B701000800
:10010000B7010008B7010008B7010008B7010008EF
:10011000B7010008B7010008B7010008B7010008DF
:10012000B7010008B7010008B7010008B7010008CF
:10013000B70100080000000000000000B70100083F
:10014000B7010008B7010008B7010008B7010008AF
:10015000B7010008B7010008B7010008B70100089F
:10016000B7010008B7010008B7010008B70100088F
:10017000B7010008B70100080000000000000000FF
:10018000B7010008B7010008DFF80CD000F07AF8DA
:10019000004800478D180008B80400200648804732
:1001A00006480047FEE7FEE7FEE7FEE7FEE7FEE75C
:1001B000FEE7FEE7FEE7FEE70116000889010008FA
:1001C0002DE9F05F0546002092469B46884606468C
:1001D000814640241BE0284641464746224600F01F
:1001E00041F853465A46C01A914110D31146184659
:1001F000224600F028F82D1A67EB01084F462246E8
:100200000120002100F01FF817EB00094E41201ECD
:10021000A4F10104DFDC484631462A464346BDE8E6
:10022000F09FD2B201E000F8012B491EFBD27047CB
:100230000022F6E710B513460A4604461946FFF7B2
:10024000F0FF204610BD202A04DB203A00FA02F11C
:10025000002070479140C2F1200320FA03F31943B4
:1002600090407047202A04DB203A21FA02F0002156
:10027000704721FA02F3D040C2F1200291400843B6
:1002800019467047064C074D06E0E06840F0010350
:1002900094E8070098471034AC42F6D3FFF778FF94
:1002A0006419000884190008FEE700007047000088
:1002B0007047000090F83510022909D1052180F817
:1002C00035100068016821F00101016000207047CD
:1002D0008021416501207047B0B5044600F0F8F870
:1002E000054640F20000C2F200000078611C18BF11
:1002F000044400BF00F0ECF8401BA042FAD3B0BDAC
:100300002DE9F04F82B000F13E4241F6004502F186
:10031000FF77C4F20205082243F6004E4FEAB726E3
:10032000A84208BF0722C4F2010E072E38BF4FEAC9
:10033000B7224FF0010A002600274FF00008009274
:1003400008E000BF023708F10108202F06F104067B
:1003500000F0AC800C680AFA08F914EA090FF1D031
:10036000D1F804C0BCF1120F00F298800AFA0CF424
:1003700014F0061F00F0928084680322CD68BA4012
:100380009443BD402C43846044686FEA020B24EA26
:1003900009024FEA1C1404FA08F44FEA480A2243FF
:1003A0004260C2688C6802EA0B0204FA0AF4224333
:1003B0004CF01004122CC26012D16FF0030202EA5A
:1003C00058020244D2F820C006F01C040F230D6925
:1003D000A3402CEA0303A5402B431362D1F804C0C9
:1003E00002680CF0030302EA0B0203FA0AF31A4351
:1003F0005FEACC034FF0010A0260A3D5002243F666
:1004000044030192C4F202031A684FF6084C42F406
:1004100080421A601A68CFF6FF7C02F48042019293
:10042000019A28F00302724452F80C3006F00C05D1
:100430000F24AC40A343009C04FA05F52B4342F87B
:100440000C30DEF800204B6842EA0905DC0358BF97
:1004500022EA0905CEF80050DEF804209C0342EAA7
:10046000090558BF22EA0905CEF80450DEF8082035
:10047000DC0242EA090543F60C4458BF22EA0905AA
:10048000CEF80850C4F2010422689B0242EA090532
:1004900058BF22EA0905256054E700BF032202FA8B
:1004A00007F46FEA040BBA467BE700BF02B0BDE871
:1004B000F08F000042690A408A4208BF0904816146
:1004C00070470000002A08BF0904816170470000DE
:1004D00040F2B000C2F200000068704740F2000035
:1004E00040F2B001C2F20000C2F2000100780A68D6
:1004F000104408607047000080B543F60040C4F225
:100500000200016841F400710160016841F48061FA
:100510000160016841F480710160032000F088F8F7
:10052000002000F005F800F027F8002080BD000052
:1005300070B540F20006C2F2000640F208013278BF
:10054000C2F200014FF47A730968B3FBF2F2044679
:10055000B1FBF2F1084600F03BFB0F2C4FF0010518
:1005600008D838B94FF0FF3021460022002500F0AE
:1005700033F87460284670BD82B0002043F6400115
:100580000190C4F202014A6842F480424A604A681B
:1005900002F480420192019A0090086840F0805075
:1005A0000860086800F080500090009802B0704722
:1005B000002848BF7047C1B200F01F00012202FAB4
:1005C00000F04EF20012CEF2000242EAD10121F018
:1005D000030108607047000010B54EF60C5CCEF2C7
:1005E000000CDCF80030C3F3022E8EF00704042C5C
:1005F00028BF0424BEF103034FF0FF3E0EFA04F4BB
:1006000038BF0023A14399400EFA03F39A431143E4
:1006100000F00F0200F160430901043A03F564435E
:100620006244002848BF02F10C03197010BD00009D
:100630004EF60C51CEF200010A684FF6FF031A4045
:1006400060F30A2242F0806040F0FD70086070475D
:100650002DE9F041002800F08B8043F60808C4F231
:1006600002080446D8F8F8030D4600F00F0088424F
:1006700007D288F8F853D8F8F80300F00F00A84222
:1006800076D12068810717D5410705D5D8F8001025
:1006900041F4E051C8F80010010705D5D8F8001062
:1006A00041F46041C8F80010D8F80010A26821F0A9
:1006B000F0011143C8F80010C0073FD1D8F8F80383
:1006C00000F00F00A84207D988F8F853D8F8F803CB
:1006D00000F00F00A8424BD12068410707D5D8F899
:1006E0000010E26821F4E0511143C8F8001000073F
:1006F00008D5D8F80000216920F4604040EAC10024
:10070000C8F8000000F07CF8D8F8001041F64A1252
:10071000C1F30311C0F60002515C40F2080220FA56
:1007200001F140F20400C2F200000068C2F20002CF
:100730001160FFF7FDFE0020BDE8F0816068811EBA
:10074000022907D258F8081C89015CBF0120BDE8C6
:10075000F08111E0012807D158F8081C89035CBF1B
:100760000120BDE8F08107E058F8081C890703D490
:100770000120BDE8F08100BFD8F8001021F003018E
:100780000843C8F80000FFF7A3FE064641F2883789
:10079000D8F80000616800F00C00B0EB810F8DD03C
:1007A000FFF796FE801BB842F2D90320BDE8F08126
:1007B00040F2080043F60801C2F20000C4F2020150
:1007C0000068096841F65A12C1F38221C0F600029E
:1007D000515CC8407047000040F2080043F6080131
:1007E000C2F20000C4F202010068096841F65A1220
:1007F000C1F34231C0F60002515CC84070470000AE
:1008000010B543F60404C4F20204606800F00C0062
:1008100008280BD0042819BF42F20040C0F2F400AF
:1008200047F64000C0F27D1010BD00BF206821686F
:100830002368490247F64001C0F27D1100F03F02F3
:10084000C3F388105CBF42F20041C0F2F401A1FB87
:1008500000010023FFF7B4FC21680222C1F301412B
:1008600002EB4101B0FBF1F010BD00002DE9F041B9
:1008700082B0002860D00446007843F60006C00726
:10088000C4F202060BD0B06800F00C00042840F05F
:1008900097803068800302D5606800284CD02078AB
:1008A00080071AD5B06810F00C0F09D0B06800F0BE
:1008B0000C00082840F09E807068400200F19A8089
:1008C0003068800702D5E068012835D13068216999
:1008D00020F0F80040EAC1003060207800072FD4F3
:1008E0002078400744D4A56915B3B06800F00C0027
:1008F000082840F0B380012D1ED0B068E16900F4F3
:1009000080028A4218D1216A00F03F028A4213D144
:1009100047F6C071626A014091420DD1A16A00F4AC
:1009200040328A4208D1E16A00F07060884203D107
:10093000002002B0BDE8F081012002B0BDE8F081E6
:100940006069002840F20000C4F2472076D00121FF
:10095000C0F8801EFFF7BCFD054600BF706F800722
:10096000BED4FFF7B5FD401B0228F7D9DDE000BF7C
:10097000306C10F080580AD100200190306C40F0AB
:1009800080503064306C00F080500190019847F244
:100990000007C4F200073868C00541D4386840F445
:1009A00080703860FFF794FD054600BF3868C005C9
:1009B00036D4FFF78DFD401B0228F7D9B5E000BF04
:1009C000B06800F00C00082803D1706840023FF5C1
:1009D00060AF6068B0F5803F07D0B0F5A02F40F061
:1009E0008D80306840F480203060306840F4803082
:1009F00030608DE0E068002852D00020C4F247202B
:100A000001210160FFF764FD054600BF30688007E3
:100A10003FF55CAFFFF75CFD401B0228F6D984E090
:100A2000A068012805D005284ED1306F40F00400A1
:100A30003067306F40F0010030674FE00021C0F8B0
:100A4000801EFFF745FD0546706F80077FF548AFB4
:100A5000FFF73EFD401B0228F6D966E00027C4F2EE
:100A6000472700203866FFF733FD022D05460BD1DE
:100A7000306880015ED5FFF72BFD401B02284FF048
:100A80000300F5D955E700BF306880017FF550AF0E
:100A9000FFF71EFD401B02284FF00300F4D948E782
:100AA0000020C4F2472000210160FFF711FD054638
:100AB000306880077FF511AFFFF70AFD401B022861
:100AC0004FF00300F4D934E7316F002821F0010121
:100AD0003167316F21F0040131674DD0FFF7F8FC29
:100AE000054641F2883700BF306F800756D4FFF7C4
:100AF000EFFC401BB842F7D917E000BF316800286F
:100B000021F480313160316821F4802131604FD08F
:100B1000FFF7DEFC054600BF306880033FF5BFAE3F
:100B2000FFF7D6FC401B6428F6D9032002B0BDE8CD
:100B3000F08100BF04F11C052FCD084340EA82106C
:100B4000D9034FF6FF729143A1F5803140EA056069
:100B50000843706001203866FFF7BAFC044600BF06
:100B6000306880013FF5E4AEFFF7B2FC001B0228BD
:100B70004FF00300F4D9DCE6FFF7AAFC054641F28A
:100B8000883700BF306F800708D5FFF7A1FC401BF6
:100B9000B8424FF00300F5D9CBE600BFB8F1000F23
:100BA0007FF4A1AE306C20F0805030649BE600BF33
:100BB000FFF78EFC054600BF306880037FF56FAEFF
:100BC000FFF786FC401B64284FF00300F4D9B0E621
:100BD000411E0020B0EB116F1CBF012070474EF288
:100BE0001002CEF2000251604EF62351CEF2000107
:100BF000F0230B7007219060116070477047000070
:100C00007047000010B590F83C20012A4FF0020216
:100C100051D080F83D200268D2F804E0D2F808C034
:100C20000C682EF07003234341F2FF74C4F20004F9
:100C3000A24253600EDC40F2FF73C4F200039A42FA
:100C400016DCB2F1804F2BD040F20043C4F2000317
:100C500024E000BF40F2FF33C4F201039A4213DCE8
:100C600041F60003C4F200039A4219D0002313E0B6
:100C700040F60003C4F200039A4211D040F600434C
:100C8000C4F200030AE000BF44F20003C4F201030F
:100C90009A4205D040F20043C4F201039A4204D1C3
:100CA00049682CF08003194391600121002280F8EB
:100CB0003D1080F83C20104610BD0000002804BF05
:100CC0000120704710B5044690F83D0028B9002077
:100CD00084F83C00204600F00DF8022084F83D0026
:100CE0002068211D00F0A0FC012084F83D000020B8
:100CF00010BD000080B582B00068B0F1804F1CBF0D
:100D000002B080BD0020019043F64000C4F2020012
:100D10000168002241F0010101600068002100F03B
:100D20000100019001981C20FFF756FC1C2002B026
:100D3000BDE88040FFF73CBC80B590F83C20012A1C
:100D40004FF0020200F0BF8080F83D20D0F800C0D4
:100D50004FF67772DCF8083023EA0202CCF808205C
:100D60000B683F2B1CDD5F2B20DD602B50D0B3F5D3
:100D7000005F6DD0702B40F0A080D1E901E3C9681D
:100D8000DCF8082043EA0E0322F47F4243EA012103
:100D90001143CCF80810DCF8081041F077018AE024
:100DA0001F2B29DC63B3102B2AD086E0402B63D0A5
:100DB000502B40F08280D1F804E0C968DCF8203084
:100DC000DCF8202022F00102CCF82020DCF81820EA
:100DD00022F0F00242EA011123F00A0242EA0E0276
:100DE000CCF81810CCF82020DCF8081041F057019E
:100DF00021F020015FE000BF202B01D0302B5CD11F
:100E0000DCF8081021F07001194341F0070152E0AD
:100E1000D1F804E0C968DCF8203023F01003CCF8E6
:100E20002030DCF81830DCF8202023F4704322F066
:100E3000A00243EA013142EA0E12CCF81810CCF8B5
:100E40002020DCF8081041F0670121F0100132E0A9
:100E5000D1E901E3C968DCF8082043EA0E0322F473
:100E60007F4243EA01211143CCF80810DCF8081056
:100E700041F480411FE000BFD1F804E0C968DCF80C
:100E80002030DCF8202022F00102CCF82020DCF811
:100E9000182022F0F00242EA011123F00A0242EA8D
:100EA0000E02CCF81810CCF82020DCF8081041F025
:100EB000470121F03001CCF808100121002280F810
:100EC0003D1080F83C20104680BD000070470000B7
:100ED00010B5016804460869800744BFC8685FEA26
:100EE000807039D40869400744BFC8685FEA407021
:100EF0003ED40869000744BFC8685FEA007045D463
:100F00000869C00644BFC8685FEAC0604AD408697F
:100F1000C0071CBFC8685FEAC07051D108690006ED
:100F200044BFC8685FEA006052D40869400644BF05
:100F3000C8685FEA406053D40869800646BFC86845
:100F40005FEA806010BD6FF0200220460A61BDE8B4
:100F50001040FFF755BE00BF6FF00200086101208E
:100F600020778869800743D02046FFF7AFFF45E030
:100F70006FF00400086102202077886910F4407F38
:100F800040D02046FFF7A2FF42E000BF6FF008000C
:100F9000086104202077C86980073DD02046FFF70C
:100FA00095FF3FE06FF01000086108202077C869C6
:100FB00010F4407F3AD02046FFF788FF3CE000BFA6
:100FC0006FF001000861204600F03EF82168A5E7B7
:100FD0006FF0800008612046FFF710FE2168A4E74B
:100FE0006FF040000861204600F04AF82168A3E74E
:100FF000204600F025F8204600F024F82168002063
:1010000020776FE7204600F01BF8204600F01AF822
:101010002168002020776CE7204600F011F8204678
:1010200000F010F821680020207769E7204600F0E2
:1010300007F8204600F006F821680020207766E7D0
:10104000704700007047000040F25401C2F20001F6
:10105000884201D0704700BF40F29400C2F2000005
:10106000C27D817D012A04BF01318175C9B2052984
:1010700038BF70470021C18201210176704700000E
:101080007047000070470000B0B505460068016871
:10109000C368446901F02F02202A03F0200213D113
:1010A00092B195F83A10222940F0E280A968B1F592
:1010B000805F41D12A69A96A4068002A64D0C0B221
:1010C00021F8010B64E000BF5FEA017C1EBF04F061
:1010D000010E03F4907414EB0E0439D10A0617D5EF
:1010E00013F0800214D095F83910212940F0C08007
:1010F000AA68296AB2F5805F32D10A886FF35F224D
:1011000042602A69002A14BF0131023129622BE0B2
:10111000490640F1AD8013F0400108BFB0BDC16881
:1011200021F04001C1602021284685F83910BDE832
:10113000B04000F0A3B900BF296940680029A96A3E
:1011400018BF00F07F004A1CAA62087021E000BFAF
:10115000CC0718BF13F4807336D14B073AD440E064
:101160004A1C2A6209784160E98C01390A04E98441
:1011700040F07E80C16821F08001C160C16841F00B
:101180004001C160B0BD00BF6FF35F2021F8020BCA
:10119000A962E88D01380104E88569D12868C16831
:1011A00021F02001C160C16821F48071C1604169F2
:1011B00021F0010141612021284685F83A10BDE85F
:1011C000B04000F03DB900BFEB6B43F00103EB63AF
:1011D0004B0706D5BEF1000F03D0EB6B43F00203C3
:1011E000EB638B0706D5BEF1000F03D0EB6B43F02A
:1011F0000403EB63BCF1000F09D542EA0E03B3FA16
:1012000083F35B0903D1EB6B43F00803EB63EB6BF8
:1012100073B311F0200118BF002A37D12868416943
:10122000EA6B01F0400102F00802891822D0C1687F
:1012300021F49071C160416921F0010141612021D7
:1012400085F83A10416949061AD5416921F04001F3
:101250004161686BA0B141F26571C0F600010165A2
:10126000FFF728F820B1686B016DBDE8B040084772
:10127000B0BD00BF2846FFF705FF0020E863B0BD02
:101280002846BDE8B040FFF7FDBE00BF95F83A1014
:101290002229C3D1A968B1F5805F07D12A69A96A5B
:1012A00040687AB1C0B221F8010B0FE029694068AB
:1012B0000029A96A18BF00F07F004A1CAA620870C2
:1012C00005E000BF6FF35F2021F8020BA962E88DF3
:1012D00001380104E885A1D12868C16821F0200106
:1012E000C160C16821F48071C160416921F00101D0
:1012F0004161202085F83A00284600F0A1F88DE7EA
:10130000002804BF0120704710B5044690F839004A
:1013100028B9002084F83800204600F021F8242065
:1013200084F839002068C16821F40051C16020466A
:1013300000F01EFA2068016921F4904101614169C1
:1013400021F02A014161C16841F40051C1600020CF
:101350002021E06384F8391084F83A1010BD0000B1
:1013600080B586B0016844F20040C4F200008142BA
:1013700002D006B080BD00BF002143F630020191CB
:10138000C4F20202136900F5DE3043F40033136146
:10139000136903F400330193019B0191116841F03B
:1013A00001011160116801F00101019101990C2105
:1013B000019102210291012103910321049107214E
:1013C000059101A9FEF79CFF262000210022FFF7CE
:1013D00003F92620FFF7ECF840F21001C2F20001F9
:1013E000081D012200F002F806B080BD034690F807
:1013F0003A0020280AD100294FF0010018BF002A26
:1014000000D1704793F83800012801D102207047BD
:101410009962002022219A85DA85D86383F83A10F0
:10142000196883F83800CA6842F48072CA604A6951
:1014300042F001024A61CA6842F02002CA60704765
:10144000006844F20041C4F20001884218BF7047AE
:1014500040F2940040F21001C2F20000C2F200011A
:10146000427D097802445170417D4A1C0029427531
:1014700004BF0121C17500218175704770470000CC
:10148000FEE700002DE9F04387B0002743F6300067
:1014900006970197C4F20200016840F2004941F04A
:1014A000800101600168C4F2020901F0800101912C
:1014B00001990197016809F5806541F00401016017
:1014C0000168002201F0040101910199019701686E
:1014D000082641F001010160016801F0010101915C
:1014E00001990197016841F002010160006808213B
:1014F00000F00200019001982846FEF7E3FF4846FD
:101500004FF4C04100224FF4C048FEF7DBFF0296C3
:10151000022002AE0124059028463146CDE903475A
:10152000FEF7EEFE48463146CDE90284CDE9047768
:10153000FEF7E6FE07B0BDE8F083000080B586B098
:1015400040F254000021C2F200004FF08042182304
:1015500040F2E73C0591CDE90311CDE90011C0E966
:101560000023C0E9021C01618161FFF7A7FB00288D
:1015700018BFFEF79DFE4FF48050029040F25400D9
:10158000C2F2000002A9FFF7D7FB002818BFFEF740
:101590008FFE40F25400C2F200006946FFF732FBB2
:1015A000002818BFFEF784FE06B080BD80B540F26B
:1015B000100044F20041C2F20000C4F2000140F801
:1015C000041F4FF4165100220C23C0E90112C0E998
:1015D0000322C0E90532C261FFF792FE002808BF6E
:1015E00080BDBDE88040FEF763BE0000FEE700005E
:1015F000704700007047000070470000FEF76EBFA4
:101600004EF68850CEF20000016841F4700101608E
:101610004FF0006140F8801C7047000040F2540019
:10162000C2F20000FFF754BC10B540F6FF3E03685D
:10163000C4F2000E40F2004C7045C4F2010C27DCED
:10164000B0F1804F31D040F20042C4F2000290422B
:101650002BD040F60002C4F20002904225D041F6A1
:10166000FF72C4F20002904229DC70453CDCB0F10C
:10167000804F5FD040F20042C4F20002904259D045
:1016800040F60002C4F20002904253D056E000BF80
:1016900040F60042C4F20002904206D0604504D0F9
:1016A0000022C4F201029042D9D14A6823F07003AB
:1016B000134341F6FF72C4F200029042D5DD43F6B7
:1016C000FF72C4F20102904222DC42F20002C4F234
:1016D000000290422ED00022C4F20102904229D092
:1016E000604527D02AE000BF40F60042C4F2000265
:1016F00090421FD041F60002C4F20002904219D07D
:1017000041F60042C4F20002904213D016E000BF3E
:1017100044F20002C4F2010290420BD044F60002EF
:10172000C4F20102904205D044F20042C4F2010228
:10173000904203D1CA6823F44073134323F080021C
:101740004B69D1F800E08C681A430260C46240F42F
:101750008062C0F828E0624504BF09690163012185
:10176000416110BD806B0021C185C184FFF78ABC37
:10177000B0B50446006804F108030ECB05691943AF
:1017800025F440552A430261626949F20C65114310
:10179000E269C368B2F5004F23EA050341EA030199
:1017A00041EA0201C1604169A36921F4407141EA43
:1017B0000301416141F2004140F48060C4F2010143
:1017C00008D14FF69C758842C0F6FF750CD1FFF723
:1017D00003F80BE04FF69C758842C0F6FF7529D1DF
:1017E000FEF7FAFF28E000BFFEF7E2FF6368192169
:1017F000A0FB01015A00DB0FFEF7E2FC48F21F518B
:10180000C5F2EB11A0FB01235A0905F1805302FB3D
:101810000300322303EBC000A0FB01014FF4F8707A
:1018200000EA111000EB0210C1F3421108442168D4
:101830008860B0BDFEF7BCFF63681921A0FB010101
:101840009A009B0FFEF7BCFC48F21F51C5F2EB114A
:10185000A0FB01235A0902FB0500322303EB001011
:10186000A0FB0101F02000EA511000EB0210C1F3CF
:101870004311084421688860B0BD000040F21400A4
:10188000C2F20000FFF700BCFEE7000092B047F292
:101890000005C4F20005FEF72FFE06AC04F10800B7
:1018A0002821FEF7C5FC002643F640000196C4F24D
:1018B00002000168012741F080510160006800F0DA
:1018C0008050019001980196286840F4804028607B
:1018D000286800F48040019001984FF48030079010
:1018E000204606970C96FEF7C1FF0F20CDE90107B1
:1018F0004FF4A05004904FF48050059001A80021AF
:101900000396FEF7A5FEFFF7BDFDFFF74FFEFFF7BD
:1019100015FE05F5CA3400BF20464FF40051FEF70E
:10192000C9FD4FF47A70FEF7D7FCF5E702E008C86E
:10193000121F08C1002AFAD170477047002001E049
:1019400001C1121F002AFBD17047000000000000F7
:10195000000001020304060708090000000001025C
:101960000304000088190008000000201000000097
:101970002C1900089819000810000020A804000085
:101980003C190008000000000100000010000000E9
:081990000024F4000000000037
:040000050800018965
:00000001FF
